{
  "contractName": "Insurance",
  "abi": [
    {
      "anonymous": false,
      "inputs": [
        {
          "indexed": false,
          "internalType": "uint256",
          "name": "insuranceTakerId",
          "type": "uint256"
        }
      ],
      "name": "addressUploaded",
      "type": "event"
    },
    {
      "anonymous": false,
      "inputs": [
        {
          "indexed": false,
          "internalType": "string",
          "name": "location",
          "type": "string"
        },
        {
          "indexed": false,
          "internalType": "string",
          "name": "description",
          "type": "string"
        },
        {
          "indexed": false,
          "internalType": "string",
          "name": "dateTime",
          "type": "string"
        },
        {
          "indexed": false,
          "internalType": "string",
          "name": "lossInjuries",
          "type": "string"
        },
        {
          "indexed": false,
          "internalType": "string",
          "name": "status",
          "type": "string"
        },
        {
          "indexed": false,
          "internalType": "uint256",
          "name": "amountGiven",
          "type": "uint256"
        }
      ],
      "name": "claimUploaded",
      "type": "event"
    },
    {
      "anonymous": false,
      "inputs": [
        {
          "indexed": false,
          "internalType": "uint256",
          "name": "id",
          "type": "uint256"
        },
        {
          "indexed": false,
          "internalType": "string",
          "name": "name",
          "type": "string"
        },
        {
          "indexed": false,
          "internalType": "string",
          "name": "contact",
          "type": "string"
        },
        {
          "indexed": false,
          "internalType": "string",
          "name": "carId",
          "type": "string"
        },
        {
          "indexed": false,
          "internalType": "string",
          "name": "carName",
          "type": "string"
        },
        {
          "indexed": false,
          "internalType": "uint256",
          "name": "transactions",
          "type": "uint256"
        },
        {
          "indexed": false,
          "internalType": "bool",
          "name": "isBanned",
          "type": "bool"
        },
        {
          "indexed": false,
          "internalType": "address payable",
          "name": "user",
          "type": "address"
        }
      ],
      "name": "dataUploaded",
      "type": "event"
    },
    {
      "constant": true,
      "inputs": [
        {
          "internalType": "address",
          "name": "",
          "type": "address"
        }
      ],
      "name": "addresses",
      "outputs": [
        {
          "internalType": "uint256",
          "name": "insuranceTakerId",
          "type": "uint256"
        }
      ],
      "payable": false,
      "stateMutability": "view",
      "type": "function"
    },
    {
      "constant": true,
      "inputs": [
        {
          "internalType": "uint256",
          "name": "",
          "type": "uint256"
        },
        {
          "internalType": "uint256",
          "name": "",
          "type": "uint256"
        }
      ],
      "name": "insuranceClaims",
      "outputs": [
        {
          "internalType": "string",
          "name": "location",
          "type": "string"
        },
        {
          "internalType": "string",
          "name": "description",
          "type": "string"
        },
        {
          "internalType": "string",
          "name": "dateTime",
          "type": "string"
        },
        {
          "internalType": "string",
          "name": "lossInjuries",
          "type": "string"
        },
        {
          "internalType": "string",
          "name": "status",
          "type": "string"
        },
        {
          "internalType": "uint256",
          "name": "amountGiven",
          "type": "uint256"
        }
      ],
      "payable": false,
      "stateMutability": "view",
      "type": "function"
    },
    {
      "constant": true,
      "inputs": [],
      "name": "insuranceTakerCount",
      "outputs": [
        {
          "internalType": "uint256",
          "name": "",
          "type": "uint256"
        }
      ],
      "payable": false,
      "stateMutability": "view",
      "type": "function"
    },
    {
      "constant": true,
      "inputs": [
        {
          "internalType": "uint256",
          "name": "",
          "type": "uint256"
        }
      ],
      "name": "insuranceTakers",
      "outputs": [
        {
          "internalType": "uint256",
          "name": "id",
          "type": "uint256"
        },
        {
          "internalType": "string",
          "name": "name",
          "type": "string"
        },
        {
          "internalType": "string",
          "name": "contact",
          "type": "string"
        },
        {
          "internalType": "string",
          "name": "carId",
          "type": "string"
        },
        {
          "internalType": "string",
          "name": "carName",
          "type": "string"
        },
        {
          "internalType": "uint256",
          "name": "transactions",
          "type": "uint256"
        },
        {
          "internalType": "bool",
          "name": "isBanned",
          "type": "bool"
        },
        {
          "internalType": "address payable",
          "name": "user",
          "type": "address"
        }
      ],
      "payable": false,
      "stateMutability": "view",
      "type": "function"
    },
    {
      "constant": false,
      "inputs": [
        {
          "internalType": "string",
          "name": "_name",
          "type": "string"
        },
        {
          "internalType": "string",
          "name": "_contact",
          "type": "string"
        },
        {
          "internalType": "string",
          "name": "_carId",
          "type": "string"
        },
        {
          "internalType": "string",
          "name": "_carName",
          "type": "string"
        },
        {
          "internalType": "address",
          "name": "_address",
          "type": "address"
        }
      ],
      "name": "addInsuranceTaker",
      "outputs": [],
      "payable": false,
      "stateMutability": "nonpayable",
      "type": "function"
    },
    {
      "constant": false,
      "inputs": [
        {
          "internalType": "uint256",
          "name": "_id",
          "type": "uint256"
        },
        {
          "internalType": "string",
          "name": "_name",
          "type": "string"
        },
        {
          "internalType": "string",
          "name": "_contact",
          "type": "string"
        },
        {
          "internalType": "string",
          "name": "_carId",
          "type": "string"
        },
        {
          "internalType": "string",
          "name": "_carName",
          "type": "string"
        },
        {
          "internalType": "address",
          "name": "_address",
          "type": "address"
        }
      ],
      "name": "editInsuranceTaker",
      "outputs": [],
      "payable": false,
      "stateMutability": "nonpayable",
      "type": "function"
    },
    {
      "constant": false,
      "inputs": [
        {
          "internalType": "string",
          "name": "_location",
          "type": "string"
        },
        {
          "internalType": "string",
          "name": "_description",
          "type": "string"
        },
        {
          "internalType": "string",
          "name": "_dateTime",
          "type": "string"
        },
        {
          "internalType": "string",
          "name": "_lossInjuries",
          "type": "string"
        }
      ],
      "name": "addClaim",
      "outputs": [],
      "payable": false,
      "stateMutability": "nonpayable",
      "type": "function"
    },
    {
      "constant": false,
      "inputs": [
        {
          "internalType": "uint256",
          "name": "_userId",
          "type": "uint256"
        },
        {
          "internalType": "bool",
          "name": "_banUnban",
          "type": "bool"
        }
      ],
      "name": "banUnban",
      "outputs": [],
      "payable": false,
      "stateMutability": "nonpayable",
      "type": "function"
    },
    {
      "constant": false,
      "inputs": [
        {
          "internalType": "uint256",
          "name": "_userId",
          "type": "uint256"
        },
        {
          "internalType": "uint256",
          "name": "_claimId",
          "type": "uint256"
        },
        {
          "internalType": "string",
          "name": "_status",
          "type": "string"
        },
        {
          "internalType": "uint256",
          "name": "_amountGiven",
          "type": "uint256"
        }
      ],
      "name": "updateClaim",
      "outputs": [],
      "payable": false,
      "stateMutability": "nonpayable",
      "type": "function"
    },
    {
      "constant": true,
      "inputs": [
        {
          "internalType": "string",
          "name": "a",
          "type": "string"
        },
        {
          "internalType": "string",
          "name": "b",
          "type": "string"
        }
      ],
      "name": "compareStrings",
      "outputs": [
        {
          "internalType": "bool",
          "name": "",
          "type": "bool"
        }
      ],
      "payable": false,
      "stateMutability": "view",
      "type": "function"
    }
  ],
  "bytecode": "0x60806040526000805534801561001457600080fd5b506141b8806100246000396000f3fe608060405234801561001057600080fd5b506004361061009e5760003560e01c80639e294740116100665780639e29474014610896578063bed34bba14610b36578063dcac496114610ca0578063f458e63414610f08578063f4f0f48214610f265761009e565b80634d856fa3146100a35780635ef2eb2f146100dd578063639224941461038757806365cae77e146105be57806382d389541461083e575b600080fd5b6100db600480360360408110156100b957600080fd5b8101908080359060200190929190803515159060200190929190505050610fff565b005b610385600480360360c08110156100f357600080fd5b81019080803590602001909291908035906020019064010000000081111561011a57600080fd5b82018360208201111561012c57600080fd5b8035906020019184600183028401116401000000008311171561014e57600080fd5b91908080601f016020809104026020016040519081016040528093929190818152602001838380828437600081840152601f19601f820116905080830192505050505050509192919290803590602001906401000000008111156101b157600080fd5b8201836020820111156101c357600080fd5b803590602001918460018302840111640100000000831117156101e557600080fd5b91908080601f016020809104026020016040519081016040528093929190818152602001838380828437600081840152601f19601f8201169050808301925050505050505091929192908035906020019064010000000081111561024857600080fd5b82018360208201111561025a57600080fd5b8035906020019184600183028401116401000000008311171561027c57600080fd5b91908080601f016020809104026020016040519081016040528093929190818152602001838380828437600081840152601f19601f820116905080830192505050505050509192919290803590602001906401000000008111156102df57600080fd5b8201836020820111156102f157600080fd5b8035906020019184600183028401116401000000008311171561031357600080fd5b91908080601f016020809104026020016040519081016040528093929190818152602001838380828437600081840152601f19601f820116905080830192505050505050509192919290803573ffffffffffffffffffffffffffffffffffffffff1690602001909291905050506116a8565b005b6103b36004803603602081101561039d57600080fd5b810190808035906020019092919050505061235b565b6040518089815260200180602001806020018060200180602001888152602001871515151581526020018673ffffffffffffffffffffffffffffffffffffffff1673ffffffffffffffffffffffffffffffffffffffff16815260200185810385528c818151815260200191508051906020019080838360005b8381101561044757808201518184015260208101905061042c565b50505050905090810190601f1680156104745780820380516001836020036101000a031916815260200191505b5085810384528b818151815260200191508051906020019080838360005b838110156104ad578082015181840152602081019050610492565b50505050905090810190601f1680156104da5780820380516001836020036101000a031916815260200191505b5085810383528a818151815260200191508051906020019080838360005b838110156105135780820151818401526020810190506104f8565b50505050905090810190601f1680156105405780820380516001836020036101000a031916815260200191505b50858103825289818151815260200191508051906020019080838360005b8381101561057957808201518184015260208101905061055e565b50505050905090810190601f1680156105a65780820380516001836020036101000a031916815260200191505b509c5050505050505050505050505060405180910390f35b61083c600480360360808110156105d457600080fd5b81019080803590602001906401000000008111156105f157600080fd5b82018360208201111561060357600080fd5b8035906020019184600183028401116401000000008311171561062557600080fd5b91908080601f016020809104026020016040519081016040528093929190818152602001838380828437600081840152601f19601f8201169050808301925050505050505091929192908035906020019064010000000081111561068857600080fd5b82018360208201111561069a57600080fd5b803590602001918460018302840111640100000000831117156106bc57600080fd5b91908080601f016020809104026020016040519081016040528093929190818152602001838380828437600081840152601f19601f8201169050808301925050505050505091929192908035906020019064010000000081111561071f57600080fd5b82018360208201111561073157600080fd5b8035906020019184600183028401116401000000008311171561075357600080fd5b91908080601f016020809104026020016040519081016040528093929190818152602001838380828437600081840152601f19601f820116905080830192505050505050509192919290803590602001906401000000008111156107b657600080fd5b8201836020820111156107c857600080fd5b803590602001918460018302840111640100000000831117156107ea57600080fd5b91908080601f016020809104026020016040519081016040528093929190818152602001838380828437600081840152601f19601f820116905080830192505050505050509192919290505050612630565b005b6108806004803603602081101561085457600080fd5b81019080803573ffffffffffffffffffffffffffffffffffffffff1690602001909291905050506130bd565b6040518082815260200191505060405180910390f35b610b34600480360360a08110156108ac57600080fd5b81019080803590602001906401000000008111156108c957600080fd5b8201836020820111156108db57600080fd5b803590602001918460018302840111640100000000831117156108fd57600080fd5b91908080601f016020809104026020016040519081016040528093929190818152602001838380828437600081840152601f19601f8201169050808301925050505050505091929192908035906020019064010000000081111561096057600080fd5b82018360208201111561097257600080fd5b8035906020019184600183028401116401000000008311171561099457600080fd5b91908080601f016020809104026020016040519081016040528093929190818152602001838380828437600081840152601f19601f820116905080830192505050505050509192919290803590602001906401000000008111156109f757600080fd5b820183602082011115610a0957600080fd5b80359060200191846001830284011164010000000083111715610a2b57600080fd5b91908080601f016020809104026020016040519081016040528093929190818152602001838380828437600081840152601f19601f82011690508083019250505050505050919291929080359060200190640100000000811115610a8e57600080fd5b820183602082011115610aa057600080fd5b80359060200191846001830284011164010000000083111715610ac257600080fd5b91908080601f016020809104026020016040519081016040528093929190818152602001838380828437600081840152601f19601f820116905080830192505050505050509192919290803573ffffffffffffffffffffffffffffffffffffffff1690602001909291905050506130db565b005b610c8660048036036040811015610b4c57600080fd5b8101908080359060200190640100000000811115610b6957600080fd5b820183602082011115610b7b57600080fd5b80359060200191846001830284011164010000000083111715610b9d57600080fd5b91908080601f016020809104026020016040519081016040528093929190818152602001838380828437600081840152601f19601f82011690508083019250505050505050919291929080359060200190640100000000811115610c0057600080fd5b820183602082011115610c1257600080fd5b80359060200191846001830284011164010000000083111715610c3457600080fd5b91908080601f016020809104026020016040519081016040528093929190818152602001838380828437600081840152601f19601f820116905080830192505050505050509192919290505050613550565b604051808215151515815260200191505060405180910390f35b610cd660048036036040811015610cb657600080fd5b81019080803590602001909291908035906020019092919050505061363f565b60405180806020018060200180602001806020018060200187815260200186810386528c818151815260200191508051906020019080838360005b83811015610d2c578082015181840152602081019050610d11565b50505050905090810190601f168015610d595780820380516001836020036101000a031916815260200191505b5086810385528b818151815260200191508051906020019080838360005b83811015610d92578082015181840152602081019050610d77565b50505050905090810190601f168015610dbf5780820380516001836020036101000a031916815260200191505b5086810384528a818151815260200191508051906020019080838360005b83811015610df8578082015181840152602081019050610ddd565b50505050905090810190601f168015610e255780820380516001836020036101000a031916815260200191505b50868103835289818151815260200191508051906020019080838360005b83811015610e5e578082015181840152602081019050610e43565b50505050905090810190601f168015610e8b5780820380516001836020036101000a031916815260200191505b50868103825288818151815260200191508051906020019080838360005b83811015610ec4578082015181840152602081019050610ea9565b50505050905090810190601f168015610ef15780820380516001836020036101000a031916815260200191505b509b50505050505050505050505060405180910390f35b610f10613980565b6040518082815260200191505060405180910390f35b610ffd60048036036080811015610f3c57600080fd5b81019080803590602001909291908035906020019092919080359060200190640100000000811115610f6d57600080fd5b820183602082011115610f7f57600080fd5b80359060200191846001830284011164010000000083111715610fa157600080fd5b91908080601f016020809104026020016040519081016040528093929190818152602001838380828437600081840152601f19601f82011690508083019250505050505050919291929080359060200190929190505050613986565b005b6000821161100c57600080fd5b611014614038565b600160008481526020019081526020016000206040518061010001604052908160008201548152602001600182018054600181600116156101000203166002900480601f0160208091040260200160405190810160405280929190818152602001828054600181600116156101000203166002900480156110d65780601f106110ab576101008083540402835291602001916110d6565b820191906000526020600020905b8154815290600101906020018083116110b957829003601f168201915b50505050508152602001600282018054600181600116156101000203166002900480601f0160208091040260200160405190810160405280929190818152602001828054600181600116156101000203166002900480156111785780601f1061114d57610100808354040283529160200191611178565b820191906000526020600020905b81548152906001019060200180831161115b57829003601f168201915b50505050508152602001600382018054600181600116156101000203166002900480601f01602080910402602001604051908101604052809291908181526020018280546001816001161561010002031660029004801561121a5780601f106111ef5761010080835404028352916020019161121a565b820191906000526020600020905b8154815290600101906020018083116111fd57829003601f168201915b50505050508152602001600482018054600181600116156101000203166002900480601f0160208091040260200160405190810160405280929190818152602001828054600181600116156101000203166002900480156112bc5780601f10611291576101008083540402835291602001916112bc565b820191906000526020600020905b81548152906001019060200180831161129f57829003601f168201915b50505050508152602001600582015481526020016006820160009054906101000a900460ff161515151581526020016006820160019054906101000a900473ffffffffffffffffffffffffffffffffffffffff1673ffffffffffffffffffffffffffffffffffffffff1673ffffffffffffffffffffffffffffffffffffffff16815250509050818160c0019015159081151581525050806001600085815260200190815260200160002060008201518160000155602082015181600101908051906020019061138c929190614095565b5060408201518160020190805190602001906113a9929190614095565b5060608201518160030190805190602001906113c6929190614095565b5060808201518160040190805190602001906113e3929190614095565b5060a0820151816005015560c08201518160060160006101000a81548160ff02191690831515021790555060e08201518160060160016101000a81548173ffffffffffffffffffffffffffffffffffffffff021916908373ffffffffffffffffffffffffffffffffffffffff1602179055509050507f718dc045f80fa3d48e5d1304dcb82543fbaa288aa5629647f5e8cd11af9d140b816000015182602001518360400151846060015185608001518660a0015188336040518089815260200180602001806020018060200180602001888152602001871515151581526020018673ffffffffffffffffffffffffffffffffffffffff1673ffffffffffffffffffffffffffffffffffffffff16815260200185810385528c818151815260200191508051906020019080838360005b8381101561152d578082015181840152602081019050611512565b50505050905090810190601f16801561155a5780820380516001836020036101000a031916815260200191505b5085810384528b818151815260200191508051906020019080838360005b83811015611593578082015181840152602081019050611578565b50505050905090810190601f1680156115c05780820380516001836020036101000a031916815260200191505b5085810383528a818151815260200191508051906020019080838360005b838110156115f95780820151818401526020810190506115de565b50505050905090810190601f1680156116265780820380516001836020036101000a031916815260200191505b50858103825289818151815260200191508051906020019080838360005b8381101561165f578082015181840152602081019050611644565b50505050905090810190601f16801561168c5780820380516001836020036101000a031916815260200191505b509c5050505050505050505050505060405180910390a1505050565b6000861180156116b9575060008551115b80156116c6575060008451115b80156116d3575060008351115b80156116e0575060008251115b6116e957600080fd5b6116f1614115565b600260008373ffffffffffffffffffffffffffffffffffffffff1673ffffffffffffffffffffffffffffffffffffffff1681526020019081526020016000206040518060200160405290816000820154815250509050600081600001519050611758614038565b600160008a81526020019081526020016000206040518061010001604052908160008201548152602001600182018054600181600116156101000203166002900480601f01602080910402602001604051908101604052809291908181526020018280546001816001161561010002031660029004801561181a5780601f106117ef5761010080835404028352916020019161181a565b820191906000526020600020905b8154815290600101906020018083116117fd57829003601f168201915b50505050508152602001600282018054600181600116156101000203166002900480601f0160208091040260200160405190810160405280929190818152602001828054600181600116156101000203166002900480156118bc5780601f10611891576101008083540402835291602001916118bc565b820191906000526020600020905b81548152906001019060200180831161189f57829003601f168201915b50505050508152602001600382018054600181600116156101000203166002900480601f01602080910402602001604051908101604052809291908181526020018280546001816001161561010002031660029004801561195e5780601f106119335761010080835404028352916020019161195e565b820191906000526020600020905b81548152906001019060200180831161194157829003601f168201915b50505050508152602001600482018054600181600116156101000203166002900480601f016020809104026020016040519081016040528092919081815260200182805460018160011615610100020316600290048015611a005780601f106119d557610100808354040283529160200191611a00565b820191906000526020600020905b8154815290600101906020018083116119e357829003601f168201915b50505050508152602001600582015481526020016006820160009054906101000a900460ff161515151581526020016006820160019054906101000a900473ffffffffffffffffffffffffffffffffffffffff1673ffffffffffffffffffffffffffffffffffffffff1673ffffffffffffffffffffffffffffffffffffffff16815250509050888214611b205760405180602001604052808a815250600260008673ffffffffffffffffffffffffffffffffffffffff1673ffffffffffffffffffffffffffffffffffffffff168152602001908152602001600020600082015181600001559050507f49364a15defa0069a0b8bf673bac838e6a381efe6ca2a194d95ba75773412f2c896040518082815260200191505060405180910390a15b60001515611b3282602001518a613550565b15151480611b51575060001515611b4d826040015189613550565b1515145b80611b6d575060001515611b69826060015188613550565b1515145b80611b89575060001515611b85826080015187613550565b1515145b15611f29576040518061010001604052808a81526020018981526020018881526020018781526020018681526020018260a0015181526020018260c00151151581526020013373ffffffffffffffffffffffffffffffffffffffff16815250600160008b8152602001908152602001600020600082015181600001556020820151816001019080519060200190611c21929190614095565b506040820151816002019080519060200190611c3e929190614095565b506060820151816003019080519060200190611c5b929190614095565b506080820151816004019080519060200190611c78929190614095565b5060a0820151816005015560c08201518160060160006101000a81548160ff02191690831515021790555060e08201518160060160016101000a81548173ffffffffffffffffffffffffffffffffffffffff021916908373ffffffffffffffffffffffffffffffffffffffff1602179055509050507f718dc045f80fa3d48e5d1304dcb82543fbaa288aa5629647f5e8cd11af9d140b89898989898660a001518760c00151336040518089815260200180602001806020018060200180602001888152602001871515151581526020018673ffffffffffffffffffffffffffffffffffffffff1673ffffffffffffffffffffffffffffffffffffffff16815260200185810385528c818151815260200191508051906020019080838360005b83811015611db2578082015181840152602081019050611d97565b50505050905090810190601f168015611ddf5780820380516001836020036101000a031916815260200191505b5085810384528b818151815260200191508051906020019080838360005b83811015611e18578082015181840152602081019050611dfd565b50505050905090810190601f168015611e455780820380516001836020036101000a031916815260200191505b5085810383528a818151815260200191508051906020019080838360005b83811015611e7e578082015181840152602081019050611e63565b50505050905090810190601f168015611eab5780820380516001836020036101000a031916815260200191505b50858103825289818151815260200191508051906020019080838360005b83811015611ee4578082015181840152602081019050611ec9565b50505050905090810190601f168015611f115780820380516001836020036101000a031916815260200191505b509c5050505050505050505050505060405180910390a15b6040518061010001604052806000548152602001898152602001888152602001878152602001868152602001600081526020016000151581526020013373ffffffffffffffffffffffffffffffffffffffff16815250600160008b8152602001908152602001600020600082015181600001556020820151816001019080519060200190611fb8929190614095565b506040820151816002019080519060200190611fd5929190614095565b506060820151816003019080519060200190611ff2929190614095565b50608082015181600401908051906020019061200f929190614095565b5060a0820151816005015560c08201518160060160006101000a81548160ff02191690831515021790555060e08201518160060160016101000a81548173ffffffffffffffffffffffffffffffffffffffff021916908373ffffffffffffffffffffffffffffffffffffffff1602179055509050506040518060200160405280600054815250600260008673ffffffffffffffffffffffffffffffffffffffff1673ffffffffffffffffffffffffffffffffffffffff168152602001908152602001600020600082015181600001559050507f718dc045f80fa3d48e5d1304dcb82543fbaa288aa5629647f5e8cd11af9d140b60005489898989600080336040518089815260200180602001806020018060200180602001888152602001871515151581526020018673ffffffffffffffffffffffffffffffffffffffff1673ffffffffffffffffffffffffffffffffffffffff16815260200185810385528c818151815260200191508051906020019080838360005b838110156121a1578082015181840152602081019050612186565b50505050905090810190601f1680156121ce5780820380516001836020036101000a031916815260200191505b5085810384528b818151815260200191508051906020019080838360005b838110156122075780820151818401526020810190506121ec565b50505050905090810190601f1680156122345780820380516001836020036101000a031916815260200191505b5085810383528a818151815260200191508051906020019080838360005b8381101561226d578082015181840152602081019050612252565b50505050905090810190601f16801561229a5780820380516001836020036101000a031916815260200191505b50858103825289818151815260200191508051906020019080838360005b838110156122d35780820151818401526020810190506122b8565b50505050905090810190601f1680156123005780820380516001836020036101000a031916815260200191505b509c5050505050505050505050505060405180910390a17f49364a15defa0069a0b8bf673bac838e6a381efe6ca2a194d95ba75773412f2c6000546040518082815260200191505060405180910390a1505050505050505050565b6001602052806000526040600020600091509050806000015490806001018054600181600116156101000203166002900480601f01602080910402602001604051908101604052809291908181526020018280546001816001161561010002031660029004801561240d5780601f106123e25761010080835404028352916020019161240d565b820191906000526020600020905b8154815290600101906020018083116123f057829003601f168201915b505050505090806002018054600181600116156101000203166002900480601f0160208091040260200160405190810160405280929190818152602001828054600181600116156101000203166002900480156124ab5780601f10612480576101008083540402835291602001916124ab565b820191906000526020600020905b81548152906001019060200180831161248e57829003601f168201915b505050505090806003018054600181600116156101000203166002900480601f0160208091040260200160405190810160405280929190818152602001828054600181600116156101000203166002900480156125495780601f1061251e57610100808354040283529160200191612549565b820191906000526020600020905b81548152906001019060200180831161252c57829003601f168201915b505050505090806004018054600181600116156101000203166002900480601f0160208091040260200160405190810160405280929190818152602001828054600181600116156101000203166002900480156125e75780601f106125bc576101008083540402835291602001916125e7565b820191906000526020600020905b8154815290600101906020018083116125ca57829003601f168201915b5050505050908060050154908060060160009054906101000a900460ff16908060060160019054906101000a900473ffffffffffffffffffffffffffffffffffffffff16905088565b60008451118015612642575060008351115b801561264f575060008251115b801561265c575060008151115b61266557600080fd5b61266d614115565b600260003373ffffffffffffffffffffffffffffffffffffffff1673ffffffffffffffffffffffffffffffffffffffff16815260200190815260200160002060405180602001604052908160008201548152505090506000816000015190506126d4614038565b600160008381526020019081526020016000206040518061010001604052908160008201548152602001600182018054600181600116156101000203166002900480601f0160208091040260200160405190810160405280929190818152602001828054600181600116156101000203166002900480156127965780601f1061276b57610100808354040283529160200191612796565b820191906000526020600020905b81548152906001019060200180831161277957829003601f168201915b50505050508152602001600282018054600181600116156101000203166002900480601f0160208091040260200160405190810160405280929190818152602001828054600181600116156101000203166002900480156128385780601f1061280d57610100808354040283529160200191612838565b820191906000526020600020905b81548152906001019060200180831161281b57829003601f168201915b50505050508152602001600382018054600181600116156101000203166002900480601f0160208091040260200160405190810160405280929190818152602001828054600181600116156101000203166002900480156128da5780601f106128af576101008083540402835291602001916128da565b820191906000526020600020905b8154815290600101906020018083116128bd57829003601f168201915b50505050508152602001600482018054600181600116156101000203166002900480601f01602080910402602001604051908101604052809291908181526020018280546001816001161561010002031660029004801561297c5780601f106129515761010080835404028352916020019161297c565b820191906000526020600020905b81548152906001019060200180831161295f57829003601f168201915b50505050508152602001600582015481526020016006820160009054906101000a900460ff161515151581526020016006820160019054906101000a900473ffffffffffffffffffffffffffffffffffffffff1673ffffffffffffffffffffffffffffffffffffffff1673ffffffffffffffffffffffffffffffffffffffff16815250509050600060018260a001510190506040518060c001604052808981526020018881526020018781526020018681526020016040518060400160405280600881526020017f556e736f6c766564000000000000000000000000000000000000000000000000815250815260200160008152506003600085815260200190815260200160002060008381526020019081526020016000206000820151816000019080519060200190612ab1929190614095565b506020820151816001019080519060200190612ace929190614095565b506040820151816002019080519060200190612aeb929190614095565b506060820151816003019080519060200190612b08929190614095565b506080820151816004019080519060200190612b25929190614095565b5060a082015181600501559050507fe33852a238e5ec9b2c3dd636a4f745447d450253f0cc31fe82e81e621ef1658888888888600060405180806020018060200180602001806020018060200187815260200186810386528b818151815260200191508051906020019080838360005b83811015612bb0578082015181840152602081019050612b95565b50505050905090810190601f168015612bdd5780820380516001836020036101000a031916815260200191505b5086810385528a818151815260200191508051906020019080838360005b83811015612c16578082015181840152602081019050612bfb565b50505050905090810190601f168015612c435780820380516001836020036101000a031916815260200191505b50868103845289818151815260200191508051906020019080838360005b83811015612c7c578082015181840152602081019050612c61565b50505050905090810190601f168015612ca95780820380516001836020036101000a031916815260200191505b50868103835288818151815260200191508051906020019080838360005b83811015612ce2578082015181840152602081019050612cc7565b50505050905090810190601f168015612d0f5780820380516001836020036101000a031916815260200191505b50868103825260088152602001807f556e736f6c7665640000000000000000000000000000000000000000000000008152506020019a505050505050505050505060405180910390a1808260a00181815250508160016000858152602001908152602001600020600082015181600001556020820151816001019080519060200190612d9c929190614095565b506040820151816002019080519060200190612db9929190614095565b506060820151816003019080519060200190612dd6929190614095565b506080820151816004019080519060200190612df3929190614095565b5060a0820151816005015560c08201518160060160006101000a81548160ff02191690831515021790555060e08201518160060160016101000a81548173ffffffffffffffffffffffffffffffffffffffff021916908373ffffffffffffffffffffffffffffffffffffffff1602179055509050507f718dc045f80fa3d48e5d1304dcb82543fbaa288aa5629647f5e8cd11af9d140b82600001518360200151846040015185606001518660800151868860c00151336040518089815260200180602001806020018060200180602001888152602001871515151581526020018673ffffffffffffffffffffffffffffffffffffffff1673ffffffffffffffffffffffffffffffffffffffff16815260200185810385528c818151815260200191508051906020019080838360005b83811015612f3d578082015181840152602081019050612f22565b50505050905090810190601f168015612f6a5780820380516001836020036101000a031916815260200191505b5085810384528b818151815260200191508051906020019080838360005b83811015612fa3578082015181840152602081019050612f88565b50505050905090810190601f168015612fd05780820380516001836020036101000a031916815260200191505b5085810383528a818151815260200191508051906020019080838360005b83811015613009578082015181840152602081019050612fee565b50505050905090810190601f1680156130365780820380516001836020036101000a031916815260200191505b50858103825289818151815260200191508051906020019080838360005b8381101561306f578082015181840152602081019050613054565b50505050905090810190601f16801561309c5780820380516001836020036101000a031916815260200191505b509c5050505050505050505050505060405180910390a15050505050505050565b60026020528060005260406000206000915090508060000154905081565b600085511180156130ed575060008451115b80156130fa575060008351115b8015613107575060008251115b61311057600080fd5b60008081548092919060010191905055506040518061010001604052806000548152602001868152602001858152602001848152602001838152602001600081526020016000151581526020013373ffffffffffffffffffffffffffffffffffffffff1681525060016000805481526020019081526020016000206000820151816000015560208201518160010190805190602001906131b1929190614095565b5060408201518160020190805190602001906131ce929190614095565b5060608201518160030190805190602001906131eb929190614095565b506080820151816004019080519060200190613208929190614095565b5060a0820151816005015560c08201518160060160006101000a81548160ff02191690831515021790555060e08201518160060160016101000a81548173ffffffffffffffffffffffffffffffffffffffff021916908373ffffffffffffffffffffffffffffffffffffffff1602179055509050506040518060200160405280600054815250600260008373ffffffffffffffffffffffffffffffffffffffff1673ffffffffffffffffffffffffffffffffffffffff168152602001908152602001600020600082015181600001559050507f718dc045f80fa3d48e5d1304dcb82543fbaa288aa5629647f5e8cd11af9d140b60005486868686600080336040518089815260200180602001806020018060200180602001888152602001871515151581526020018673ffffffffffffffffffffffffffffffffffffffff1673ffffffffffffffffffffffffffffffffffffffff16815260200185810385528c818151815260200191508051906020019080838360005b8381101561339a57808201518184015260208101905061337f565b50505050905090810190601f1680156133c75780820380516001836020036101000a031916815260200191505b5085810384528b818151815260200191508051906020019080838360005b838110156134005780820151818401526020810190506133e5565b50505050905090810190601f16801561342d5780820380516001836020036101000a031916815260200191505b5085810383528a818151815260200191508051906020019080838360005b8381101561346657808201518184015260208101905061344b565b50505050905090810190601f1680156134935780820380516001836020036101000a031916815260200191505b50858103825289818151815260200191508051906020019080838360005b838110156134cc5780820151818401526020810190506134b1565b50505050905090810190601f1680156134f95780820380516001836020036101000a031916815260200191505b509c5050505050505050505050505060405180910390a17f49364a15defa0069a0b8bf673bac838e6a381efe6ca2a194d95ba75773412f2c6000546040518082815260200191505060405180910390a15050505050565b6000816040516020018082805190602001908083835b602083106135895780518252602082019150602081019050602083039250613566565b6001836020036101000a03801982511681845116808217855250505050505090500191505060405160208183030381529060405280519060200120836040516020018082805190602001908083835b602083106135fb57805182526020820191506020810190506020830392506135d8565b6001836020036101000a0380198251168184511680821785525050505050509050019150506040516020818303038152906040528051906020012014905092915050565b600360205281600052604060002060205280600052604060002060009150915050806000018054600181600116156101000203166002900480601f0160208091040260200160405190810160405280929190818152602001828054600181600116156101000203166002900480156136f85780601f106136cd576101008083540402835291602001916136f8565b820191906000526020600020905b8154815290600101906020018083116136db57829003601f168201915b505050505090806001018054600181600116156101000203166002900480601f0160208091040260200160405190810160405280929190818152602001828054600181600116156101000203166002900480156137965780601f1061376b57610100808354040283529160200191613796565b820191906000526020600020905b81548152906001019060200180831161377957829003601f168201915b505050505090806002018054600181600116156101000203166002900480601f0160208091040260200160405190810160405280929190818152602001828054600181600116156101000203166002900480156138345780601f1061380957610100808354040283529160200191613834565b820191906000526020600020905b81548152906001019060200180831161381757829003601f168201915b505050505090806003018054600181600116156101000203166002900480601f0160208091040260200160405190810160405280929190818152602001828054600181600116156101000203166002900480156138d25780601f106138a7576101008083540402835291602001916138d2565b820191906000526020600020905b8154815290600101906020018083116138b557829003601f168201915b505050505090806004018054600181600116156101000203166002900480601f0160208091040260200160405190810160405280929190818152602001828054600181600116156101000203166002900480156139705780601f1061394557610100808354040283529160200191613970565b820191906000526020600020905b81548152906001019060200180831161395357829003601f168201915b5050505050908060050154905086565b60005481565b61398e614128565b6003600086815260200190815260200160002060008581526020019081526020016000206040518060c0016040529081600082018054600181600116156101000203166002900480601f016020809104026020016040519081016040528092919081815260200182805460018160011615610100020316600290048015613a565780601f10613a2b57610100808354040283529160200191613a56565b820191906000526020600020905b815481529060010190602001808311613a3957829003601f168201915b50505050508152602001600182018054600181600116156101000203166002900480601f016020809104026020016040519081016040528092919081815260200182805460018160011615610100020316600290048015613af85780601f10613acd57610100808354040283529160200191613af8565b820191906000526020600020905b815481529060010190602001808311613adb57829003601f168201915b50505050508152602001600282018054600181600116156101000203166002900480601f016020809104026020016040519081016040528092919081815260200182805460018160011615610100020316600290048015613b9a5780601f10613b6f57610100808354040283529160200191613b9a565b820191906000526020600020905b815481529060010190602001808311613b7d57829003601f168201915b50505050508152602001600382018054600181600116156101000203166002900480601f016020809104026020016040519081016040528092919081815260200182805460018160011615610100020316600290048015613c3c5780601f10613c1157610100808354040283529160200191613c3c565b820191906000526020600020905b815481529060010190602001808311613c1f57829003601f168201915b50505050508152602001600482018054600181600116156101000203166002900480601f016020809104026020016040519081016040528092919081815260200182805460018160011615610100020316600290048015613cde5780601f10613cb357610100808354040283529160200191613cde565b820191906000526020600020905b815481529060010190602001808311613cc157829003601f168201915b505050505081526020016005820154815250509050828160800181905250818160a0018181525050806003600087815260200190815260200160002060008681526020019081526020016000206000820151816000019080519060200190613d47929190614095565b506020820151816001019080519060200190613d64929190614095565b506040820151816002019080519060200190613d81929190614095565b506060820151816003019080519060200190613d9e929190614095565b506080820151816004019080519060200190613dbb929190614095565b5060a082015181600501559050507fe33852a238e5ec9b2c3dd636a4f745447d450253f0cc31fe82e81e621ef165888160000151826020015183604001518460600151878760405180806020018060200180602001806020018060200187815260200186810386528c818151815260200191508051906020019080838360005b83811015613e56578082015181840152602081019050613e3b565b50505050905090810190601f168015613e835780820380516001836020036101000a031916815260200191505b5086810385528b818151815260200191508051906020019080838360005b83811015613ebc578082015181840152602081019050613ea1565b50505050905090810190601f168015613ee95780820380516001836020036101000a031916815260200191505b5086810384528a818151815260200191508051906020019080838360005b83811015613f22578082015181840152602081019050613f07565b50505050905090810190601f168015613f4f5780820380516001836020036101000a031916815260200191505b50868103835289818151815260200191508051906020019080838360005b83811015613f88578082015181840152602081019050613f6d565b50505050905090810190601f168015613fb55780820380516001836020036101000a031916815260200191505b50868103825288818151815260200191508051906020019080838360005b83811015613fee578082015181840152602081019050613fd3565b50505050905090810190601f16801561401b5780820380516001836020036101000a031916815260200191505b509b50505050505050505050505060405180910390a15050505050565b604051806101000160405280600081526020016060815260200160608152602001606081526020016060815260200160008152602001600015158152602001600073ffffffffffffffffffffffffffffffffffffffff1681525090565b828054600181600116156101000203166002900490600052602060002090601f016020900481019282601f106140d657805160ff1916838001178555614104565b82800160010185558215614104579182015b828111156141035782518255916020019190600101906140e8565b5b509050614111919061415e565b5090565b6040518060200160405280600081525090565b6040518060c001604052806060815260200160608152602001606081526020016060815260200160608152602001600081525090565b61418091905b8082111561417c576000816000905550600101614164565b5090565b9056fea265627a7a72315820557ec6e3e9acef6553112cf3775b5f2a0c084517e4b7b1e500fd5d74c753396064736f6c634300050c0032",
  "source": "pragma solidity >=0.4.21 <0.6.0;\r\n\r\ncontract Insurance{\r\n\r\n\tuint public insuranceTakerCount = 0;\r\n\r\n\tmapping(uint => InsuranceTaker) public insuranceTakers;\r\n\tmapping(address => Address) public addresses;\r\n\tmapping(uint => mapping(uint => InsuranceClaim)) public insuranceClaims;\r\n\r\n\tstruct InsuranceTaker{\r\n\t\tuint id;\r\n\t\tstring name;\r\n\t\tstring contact;\r\n\t\tstring carId;\r\n\t\tstring carName;\r\n\t\tuint transactions;\r\n\t\tbool isBanned;\r\n\t\taddress payable user;\r\n\t}\r\n\r\n\tstruct Address{\r\n\t\tuint insuranceTakerId;\r\n\t}\r\n\r\n\tstruct InsuranceClaim{\r\n\t\tstring location;\r\n\t\tstring description;\r\n\t\tstring dateTime;\r\n\t\tstring lossInjuries;\r\n\t\tstring status;\r\n\t\tuint amountGiven;\r\n\t}\r\n\r\n\tevent dataUploaded(\r\n\t\tuint id,\r\n\t\tstring name,\r\n\t\tstring contact,\r\n\t\tstring carId,\r\n\t\tstring carName,\r\n\t\tuint transactions,\r\n\t\tbool isBanned,\r\n\t\taddress payable user\r\n\t);\r\n\r\n\tevent addressUploaded(\r\n\t\tuint insuranceTakerId\r\n\t);\r\n\r\n\tevent claimUploaded(\r\n\t\tstring location,\r\n\t\tstring description,\r\n\t\tstring dateTime,\r\n\t\tstring lossInjuries,\r\n\t\tstring status,\r\n\t\tuint amountGiven\r\n\t);\r\n\r\n\tfunction addInsuranceTaker (string memory _name, string memory _contact, string memory _carId, string memory _carName, address _address) public {\r\n\t\trequire((bytes(_name).length > 0) && (bytes(_contact).length > 0) && (bytes(_carId).length > 0) && (bytes(_carName).length > 0));\r\n\t\tinsuranceTakerCount ++;\r\n\t\tinsuranceTakers[insuranceTakerCount] = InsuranceTaker(insuranceTakerCount, _name, _contact, _carId, _carName, 0, false, msg.sender);\r\n\t\taddresses[_address] = Address(insuranceTakerCount);\r\n\t\temit dataUploaded(insuranceTakerCount, _name, _contact, _carId, _carName, 0, false, msg.sender);\r\n\t\temit addressUploaded(insuranceTakerCount);\r\n\t}\r\n\r\n\tfunction editInsuranceTaker (uint _id, string memory _name, string memory _contact, string memory _carId, string memory _carName, address _address) public {\r\n\t\trequire((_id>0)&& (bytes(_name).length > 0) && (bytes(_contact).length > 0) && (bytes(_carId).length > 0) && (bytes(_carName).length > 0));\r\n\t\tAddress memory _user = addresses[_address];\r\n        uint _userId = _user.insuranceTakerId;\r\n\t\tInsuranceTaker memory _insuranceTaker = insuranceTakers[_id];\r\n\t\tif(_userId!=_id){\r\n\t\t\taddresses[_address] = Address(_id);\r\n\t\t\temit addressUploaded(_id);\r\n\t\t}\r\n\t\tif((compareStrings(_insuranceTaker.name,_name)==false)||(compareStrings(_insuranceTaker.contact,_contact)==false)||(compareStrings(_insuranceTaker.carId,_carId)==false)||(compareStrings(_insuranceTaker.carName,_carName)==false)){\r\n\t\t\tinsuranceTakers[_id] = InsuranceTaker(_id,_name,_contact,_carId,_carName, _insuranceTaker.transactions, _insuranceTaker.isBanned, msg.sender);\r\n\t\t\temit dataUploaded(_id,_name,_contact,_carId,_carName, _insuranceTaker.transactions, _insuranceTaker.isBanned, msg.sender);\r\n\t\t}\r\n\t\tinsuranceTakers[_id] = InsuranceTaker(insuranceTakerCount, _name, _contact, _carId, _carName, 0, false, msg.sender);\r\n\t\taddresses[_address] = Address(insuranceTakerCount);\r\n\t\temit dataUploaded(insuranceTakerCount, _name, _contact, _carId, _carName, 0, false, msg.sender);\r\n\t\temit addressUploaded(insuranceTakerCount);\r\n\t}\r\n\r\n\tfunction addClaim (string memory _location, string memory _description, string memory _dateTime,string memory _lossInjuries) public {\r\n        require((bytes(_location).length > 0) && (bytes(_description).length > 0) && (bytes(_dateTime).length > 0) && (bytes(_lossInjuries).length > 0));\r\n\t\tAddress memory _user = addresses[msg.sender];\r\n        uint _userId = _user.insuranceTakerId;\r\n\t\tInsuranceTaker memory _insuranceTaker = insuranceTakers[_userId];\r\n\t\tuint _claimId = _insuranceTaker.transactions + 1;\r\n\t\tinsuranceClaims[_userId][_claimId] = InsuranceClaim(_location,_description,_dateTime,_lossInjuries,\"Unsolved\",0);\r\n\t\temit claimUploaded(_location,_description,_dateTime,_lossInjuries,\"Unsolved\",0);\r\n\t\t_insuranceTaker.transactions = _claimId;\r\n\t\tinsuranceTakers[_userId] = _insuranceTaker;\r\n\t\temit dataUploaded(_insuranceTaker.id, _insuranceTaker.name, _insuranceTaker.contact, _insuranceTaker.carId, _insuranceTaker.carName, _claimId, _insuranceTaker.isBanned, msg.sender);\r\n\t}\r\n\r\n\tfunction banUnban (uint _userId, bool _banUnban) public {\r\n\t\trequire(_userId > 0);\r\n\t\tInsuranceTaker memory _insuranceTaker = insuranceTakers[_userId];\r\n\t\t_insuranceTaker.isBanned = _banUnban;\r\n\t\tinsuranceTakers[_userId] = _insuranceTaker;\r\n\t\temit dataUploaded(_insuranceTaker.id, _insuranceTaker.name, _insuranceTaker.contact, _insuranceTaker.carId, _insuranceTaker.carName, _insuranceTaker.transactions, _banUnban, msg.sender);\r\n\t}\r\n\r\n\tfunction updateClaim(uint _userId, uint _claimId, string memory _status, uint _amountGiven) public {\r\n\t\tInsuranceClaim memory _insuranceClaim = insuranceClaims[_userId][_claimId];\r\n\t\t_insuranceClaim.status = _status;\r\n\t\t_insuranceClaim.amountGiven = _amountGiven;\r\n\t\tinsuranceClaims[_userId][_claimId] = _insuranceClaim;\r\n\t\temit claimUploaded(_insuranceClaim.location, _insuranceClaim.description, _insuranceClaim.dateTime, _insuranceClaim.lossInjuries, _status, _amountGiven);\r\n\t}\r\n\r\n\tfunction compareStrings (string memory a, string memory b) public view returns (bool) {\r\n\t\treturn (keccak256(abi.encodePacked((a))) == keccak256(abi.encodePacked((b))) );\r\n\t}\r\n\r\n/*\tstring public name;\r\n\r\n\tconstructor () public{\r\n\t\tname = \"Iqdar\";\r\n\t}*/\r\n}",
  "sourcePath": "E:/Iqdar/Studies/Final Year Project/Application/InsuranceApp/src/contracts/Insurance.sol",
  "compiler": {
    "name": "solc",
    "version": "0.5.12+commit.7709ece9.Emscripten.clang"
  },
  "schemaVersion": "3.0.19",
  "updatedAt": "2020-06-03T02:52:34.933Z",
  "networkType": "ethereum",
  "devdoc": {
    "methods": {}
  },
  "userdoc": {
    "methods": {}
  }
}